:0300000002089E55
:0C089E00787FE4F6D8FD7581270208E59C
:100A930020202048656C6C6F20576F726C64202097
:100AA30000204172756E45776F726C642E636F6DB3
:020AB300200021
:080B0D0002210064022300969E
:100AEE007F38120AD67F06120AD67F0C120AD67FDC
:040AFE0001020AD611
:100AD6008FA0D282C281C2807F7D7E00120B02C2AD
:080AE600827F7D7E00020B02FD
:030AB5002430FDED
:100AB8008D0F120AD6850FA0D280D282C2817F7D87
:0E0AC8007E00120B02C2827F7D7E00020B02B6
:080A3A008F088B098A0A890B61
:100A4200E4F50EC3E50E950DE4950C501CE5082562
:100A52000EFFAB09AA0AA90B850E82758300120943
:090A62002AFD120AB8050E80DA23
:010A6B002268
:0209FF008F2542
:100A0100ED75F06484ABF07A007C007D0AAF037E63
:100A1100001209578F827E00AF037C007D0A120904
:100A2100578C268D27AF82EFAF25120AB5E5250435
:090A3100FFE5272430FD020AB89C
:0209AC008F10AA
:1009AE00ED75F06484751100F512ED75F06484AB8D
:1009BE00F07A007C007D0AAF037E001209578E1379
:1009CE008F147E00AF037C007D0A1209578C158DA3
:1009DE0016E512AF10120AB5E51004FFE514243027
:1009EE00FD120AB8E5102402FFE5162430FD020AB6
:0109FE00B840
:060800008F17AB05AA04EE
:100806007C277D10AF03AE02120957AA04AB057C04
:10081600037DE8AF03AE021209578F82AE02AF0323
:100826007C037DE8120957AB05AA047C007D64AF02
:1008360003AE021209578E188F19AE02AF037C0061
:100846007D64120957AB05AA047C007D0AAF03AE8E
:10085600021209578E1A8F1BAE02AF037C007D0A67
:100866001209578C1C8D1DAF82EF2430FDAF171275
:100876000AB8E51704FFE5192430FD120AB8E51792
:100886002402FFE51B2430FD120AB8E5172403FFF6
:08089600E51D2430FD020AB843
:0B0B0200EF1FAC0670011E4C70F622C5
:100A6C00120AEE7BFF7A0A7993750C00750D107FD4
:100A7C0080120A3A7BFF7A0A79A4750C00750D1066
:070A8C007FC0120A3A80ED61
:1008AA00020A6CE493A3F8E493A34003F68001F2EE
:1008BA0008DFF48029E493A3F85407240CC8C3334F
:1008CA00C4540F4420C8834004F456800146F6DF1E
:1008DA00E4800B0102040810204080900B0DE47E96
:1008EA00019360BCA3FF543F30E509541FFEE49313
:1008FA00A360010ECF54C025E060A840B8E493A3DA
:10090A00FAE493A3F8E493A3C8C582C8CAC583CA04
:10091A00F0A3C8C582C8CAC583CADFE9DEE780BEBC
:010B150000DF
:10092A00BB010CE58229F582E5833AF583E0225082
:10093A0006E92582F8E622BBFE06E92582F8E222CC
:0D094A00E58229F582E5833AF583E49322E6
:10095700BC000BBE0029EF8DF084FFADF022E4CC84
:10096700F875F008EF2FFFEE33FEEC33FCEE9DEC4D
:10097700984005FCEE9DFE0FD5F0E9E4CEFD22ED93
:10098700F8F5F0EE8420D21CFEADF075F008EF2FDD
:10099700FFED33FD4007985006D5F0F222C398FDCE
:0509A7000FD5F0EA226B
:00000001FF
